:100000000C9434000C9451000C9451000C94510049
:100010000C9451000C9451000C9451000C9451001C
:100020000C9451000C948B010C9451000C945100D1
:100030000C9451000C9451000C9451000C945100FC
:100040000C9451000C9451000C9451000C945100EC
:100050000C9451000C9451000C9451000C945100DC
:100060000C9451000C94510011241FBECFEFD8E026
:10007000DEBFCDBF11E0A0E0B1E0E0ECF4E002C0F3
:1000800005900D92A232B107D9F721E0A2E2B1E0CA
:1000900001C01D92A832B207E1F70E9458020C94E9
:1000A0005E020C9400005F9887FD5F9A5E9886FD63
:1000B0005E9A5D9885FD5D9A5C9884FD5C9A299AAC
:1000C00085E08A95F1F70000299885E08A95F1F797
:1000D00000000895CF93C82F289A29980E945300B2
:1000E0008C2F8295807FCF910C9453000F931F9398
:1000F000CF93DF9300D0CDB7DEB78C011A8219827F
:10010000E981FA81E00FF11F8081811107C00F9012
:100110000F90DF91CF911F910F910895E981FA819E
:10012000E00FF11F80810E946A0089819A81019607
:100130009A8389838FE391E00197F1F700C0000073
:10014000DFCFCF93C82F289829980E9453008C2F77
:100150008295807FCF910C945300579A569A559A66
:10016000549A219A209A2FEF81EE94E021508040FA
:100170009040E1F700C000002898299880E30E9491
:1001800053008FE39CE90197F1F700C0000080E382
:100190000E9453008FE193E00197F1F700C0000047
:1001A00080E30E9453008FE193E00197F1F700C0D4
:1001B000000088E20E9453008FE391E00197F1F77D
:1001C00000C0000088E20E94A1008FE391E0019747
:1001D000F1F700C0000088E00E94A1008FE391E0E9
:1001E0000197F1F700C0000081E00E94A1008FE7B5
:1001F0009EE30197F1F700C0000086E00E94A10095
:100200008FE391E00197F1F700C000008CE00E94BD
:10021000A1008FE391E00197F1F700C0000008957D
:10022000CF93DF93CDB7DEB762970FB6F894DEBFFA
:100230000FBECDBF0E94AD0022E1EFE0F1E0CE01A4
:100240000196DC0101900D922A95E1F7D82EC92E76
:100250007E0123E1E20EF11C81E00E94A1000D2D40
:100260001C2D8FE39CE90197F1F700C00000F80115
:1002700081918F010E946A00FFEF21EE84E0F1502E
:1002800020408040E1F700C000000E151F0549F72F
:10029000E3CF84E08093B10081E080937000089503
:1002A000389A08950E94500191E088B1892788B951
:1002B0002FEF31EE84E0215030408040E1F700C064
:1002C0000000F3CF399A08951092C50087E6809315
:1002D000C40088E08093C10086E08093C200089546
:1002E0009091C00095FFFCCF8093C60008950E94B6
:1002F000640184E50E94700185E60E94700183E735
:100300000E94700184E70E9470018AE00E947001DF
:10031000F0CF0C94AD001F920F920FB60F921124E4
:100320002F933F934F935F936F937F938F939F93FD
:10033000AF93BF93EF93FF9388B192E0892788B979
:10034000809124019091250101969093250180933D
:100350002401449709F088C08091220190912301E3
:10036000019690932301809322011092250110920F
:1003700024010F920FB6F8940F921F922F923F9282
:100380004F925F926F927F928F929F92AF92BF92A5
:10039000CF92DF92EF92FF920F931F932F933F9391
:1003A0004F935F936F937F938F939F93AF93BF937D
:1003B000CF93DF93EF93FF938091260190912701D4
:1003C0002DB73EB745E0489FF001499FF00D11243D
:1003D000E050FF4F348323839C012F5F3F4F0297F0
:1003E00011F420E030E0309327012093260185E0CE
:1003F000829FF001839FF00D1124E050FF4F238175
:1004000034813EBF2DBF2091260130912701829F6C
:10041000F001839FF00D1124E050FF4F9081913047
:1004200009F033C0FF91EF91DF91CF91BF91AF9170
:100430009F918F917F916F915F914F913F912F91FC
:100440001F910F91FF90EF90DF90CF90BF90AF90F2
:100450009F908F907F906F905F904F903F902F90E4
:100460001F900F900FBE0F90FF91EF91BF91AF9132
:100470009F918F917F916F915F914F913F912F91BC
:100480000F900FBE0F901F90189591E09083789475
:100490002091260130912701829FF001839FF00D6A
:1004A0001124E050FF4F0180F281E02D0995DCCF4F
:1004B0000E9462010E9449017894FFCFF894FFCF17
:1004C00000100100060052010005007701000753EB
:1004D00063686564756C696E67207461736B730A19
:0204E00000001A
:00000001FF
